:100000000C948001189518951895189518951895C1
:100010001895189518951895189518951895189578
:100020001895189518951895189518950C942C00F6
:100030001895189518951895189518951895189558
:100040001895189518951895189518951895189548
:100050001895189518951895FA93EA933A932A9358
:100060001A930A933FB70091B3001091B4000D3971
:1000700020E0120748F4E3EBF0E0008111810F5F0C
:100080001F4F008311830BC0E0EAF0E000810160A4
:10009000008300E00093B30000E00093B4003FBF92
:1000A0000991199129913991E991F991189561EA8C
:1000B00070E040E050E020E030E000E810E00E9416
:1000C000860001E003BF01E009BF00E002BF089520
:1000D00008E010E0089504E010E008950895E7DFD7
:1000E0007894E0EAF0E0008100FFFBCFF1DFB80197
:1000F000F2DF980141EA50E08B010E94C300EEDF7D
:10010000E0EAF0E000810E7F0083EBCFBA93AA9380
:10011000DB01FD0160E0628360E0638360E0648393
:1001200060E0658360E06D9360E06C931197FD0182
:1001300006831783FD0120873187FD01428753879E
:10014000FD01468157814F5F5F4F0FEF1FE70E9410
:10015000AD01FD0104871587FD01408551854F5F85
:100160005F4F652F660F660B762F0FEF1FEF2FEF98
:100170003FE30E940402FD0106871787208B318B25
:10018000A991B99108950E942602C8013901FA0186
:100190008619970904851585081719072CF40FEFA0
:1001A000402E0FE7502E13C004851585119501953B
:1001B0001040801791072CF401E0402E00E8502EEB
:1001C00006C006811781AC010E94920128010281BC
:1001D000138124813581A92FAA0FAA0BBA2F080FEA
:1001E000191F2A1F3B1F4685578560897189401753
:1001F0005107620773076CF48FEF9FEFAFEFBFE318
:1002000006851785208931890283138324833583EA
:1002100036C046855785608971895095609570957F
:1002200041955F4F6F4F7F4F04171507260737071C
:10023000A4F481E090E0A0E0B0EC06851785208969
:10024000318910952095309501951F4F2F4F3F4FC5
:10025000028313832483358312C002831383248390
:10026000358340855185652F660F660B762F028199
:100270001381248135810E94C501C801D9010285FD
:10028000138540815181461957090E949201A801A6
:10029000608271828201212F220F220B322F080FE0
:1002A000191F2A1F3B1F652F660F660B762F040F41
:1002B000151F261F371F40E850E060E070E00E94E5
:1002C0000402003040E8140740E0240740E034070F
:1002D0002CF00FEF1FE720E030E00CC0013040E8C9
:1002E00014074FEF24074FEF340724F401E010E820
:1002F0002FEF3FEFE8E00C942F0200008895FECF2F
:100300000FE90DBF00E00EBFC0E8D0E00E943C0244
:10031000002311F00E944A020E946F000E947D019A
:100320000C947D01149F102D059F100D049F002D2E
:10033000110D089500241124E0E1001F111FEA951A
:1003400042F0001C111C04161506B8F3041A150A15
:10035000F4CFA001009510950895FF27552312F4BE
:10036000F1600FD0112312F4F09507D00E949A018A
:10037000F0FD03D0F1FD05C00895119501951040E1
:10038000089551954195504008952224349F302D71
:10039000259F300D169F300D079F300D249F202D77
:1003A000310D159F200D311D069F200D311D149F0D
:1003B000102D210D321D059F100D211D321D049F92
:1003C000002D110D221D321D08950024112410014D
:1003D000E0E2001F111F221F331FEA9572F0001C7C
:1003E000111C221C331C041615062606370688F33A
:1003F000041A150A260A370AECCFA001B1010095AC
:100400001095209530950895FF27772312F4F16019
:1004100015D0332312F4F09509D00E94E501F6952A
:1004200008F404D0F69508F409C008953095209595
:10043000109501951F4F2F4F3F4F08957095609570
:10044000509541955F4F6F4F7F4F08957A926A9212
:100450005A924A92BA93AA939A938A9308957F8064
:100460006E805D804C80BB81AA8199818881F0E09B
:10047000EC0FFD1FEF01089501E0089520E02D939A
:1004800001501040E1F7089525912D93015010403F
:10049000D9F7089588EC94E0FC0105911491FC01D2
:1004A0003296A591B491FC01349625913491422F56
:1004B000432B19F0F901E8DF01C0E0DF069614E0F4
:0E04C0008E3C910748F308951500A00000003F
:00030001FC
:00000001FF
