:100000000C947501189518951895189518951895CC
:100010001895189518951895189518951895189578
:100020001895189518951895189518950C942C00F6
:100030001895189518951895189518951895189558
:100040001895189518951895189518951895189548
:100050001895189518951895FA93EA932A931A9378
:100060000A932FB70091A0001091A1000D39104004
:1000700030F4E091A000F091A100319607C0E0EAD1
:10008000F0E0028101600283E0E0F0E0E093A00094
:10009000F093A1002FBF099119912991E991F9914C
:1000A000189563EA70E040E050E020E030E000E8BE
:1000B00010E00E94AE0001E003BF09BF00E002BFF4
:1000C000089500E407B907E806B900E00BBB0ABBD6
:1000D00008BB0FEF07BB05BB00E004BB089503B7E7
:1000E000096603BFBB9A0895077017B1102B17B9A3
:1000F000369A349BFECF349A04B115B10895212F5E
:10010000220F220B322F0E94580240E050EC6FE782
:1001100074E40E94670340E050E06FE773E40E94DC
:10012000F2020E94D903025D0CBF0895BADFC9DF55
:10013000D6DF78940091A20000FFFCCF00E0D4DF6E
:10014000980143EA50E000E010E00E94E100D7DFB0
:10015000E0EAF0E002810E7F0283ECCFBA93AA932B
:10016000DB01FB0160E062836383648365836D93DD
:100170006C931197068317832087318742875387B3
:100180000F5F402F1F4F512F0FEF1FE70E94A2015B
:10019000FD0104871587408551854F5F5F4F652FAF
:1001A000660F660B762F0FEF1FEF2FEF3FE30E94D6
:1001B0000002FD0106871787208B318BA991B99129
:1001C00008950E94F803C8015901FA01821B930B9C
:1001D00004851585081719071CF40FEF1FE70EC0DB
:1001E000119501951040801791071CF401E010E86B
:1001F00005C006811781AC010E9487014801028178
:10020000138124813581A92FAA0FAA0B080F191F6A
:100210002A1F3A1F46845784608871884016510609
:10022000620673062CF48FEF9FEFAFEFBFE320C0A1
:100230005094609470944FEF4194540A640A740A85
:1002400004151505260537052CF481E090E0A0E0A3
:10025000B0EC0EC02801390100851185212F220F35
:10026000220B322FA201B3010E94BA01C801D901A9
:100270004282538264827582028513854081518156
:100280004A195B090E948701A801A082B1828401FA
:10029000990C9908392D080F191F9A1E3B1F652FBD
:1002A000660F660B040F151F961E292D361F40E89A
:1002B00050E060E070E00E940002003040E8140767
:1002C00040E0240734071CF00FEF1FE708C001309F
:1002D00040E814072F4F3F4F14F401E010E8ECE022
:1002E0000C94050400008895FECF0FE90DBF00E0D7
:1002F0000EBFC0E8D0E00E941604002311F00E9457
:1003000024040E9496000E9472010C947201149FB2
:10031000102D059F100D049F002D110D0895002430
:100320001124E0E1001F111FEA9542F0001C111C8E
:1003300004161506B8F3041A150AF4CFA0010095A7
:1003400010950895FF27552312F4F1600FD0112363
:1003500012F4F09507D00E948F01F0FD03D0F1FD5B
:1003600005C0089511950195104008955195419546
:10037000504008952224349F302D259F300D169F24
:10038000300D079F300D249F202D310D159F200D1E
:10039000311D069F200D311D149F102D210D321D82
:1003A000059F100D211D321D049F002D110D221DD2
:1003B000321D089536952795179507954A95D2F7DA
:1003C0000895002411241001E0E2001F111F221FD4
:1003D000331FEA9572F0001C111C221C331C0416FA
:1003E00015062606370688F3041A150A260A370A60
:1003F000ECCFA001B101009510952095309508959E
:10040000FF27772312F4F16015D0332312F4F0950F
:1004100009D00E94E101F69508F404D0F69508F49D
:1004200009C0089530952095109501951F4F2F4FC5
:100430003F4F089570956095509541955F4F6F4F70
:100440007F4F0895FF27172E660F771F089409F432
:10045000771F6795EE27032E220F331F089409F4A8
:10046000331F27950895222342F0323030F03A9519
:10047000EE0F001F111F221FC2F7E03821F400FF0A
:1004800008940EF488940F4F1F4F2F4F3F4F323078
:1004900038F4332319F427FD31E002C027FF30E0A0
:1004A0003F3F29F0220F000C37952795089586C00D
:1004B000032E002012F40E941202E02F012F122FAF
:1004C000232F3EE9E894CFCFF901EE0FFF1F37FB52
:1004D000FF3F31F0EF2BE12BE02B8894B894089587
:1004E000EE2321F008949894B894089598948894F1
:1004F00038940895FB01EE0FFF1F77FBFF3F31F0AB
:10050000EF2BE52BE42B8894B8940895EE2371F338
:10051000E9CFF0DF68F021F43723262F8A01089510
:10052000372FFBCFE7DF20F00BF008957327EAF7B2
:1005300049C0CADFE8F3B3F361F3DCDFC8F383F348
:10054000A1F380DF401751076207730729F4302CAD
:100550003124E2F400242CC058F0F9019B01BF01C2
:10056000F8018A01AF01E0E0F0E0302C012C132CFF
:10057000731B39F0669557954795F795E04073954D
:10058000C9F7E7FBEE0FE0E010246AF0EF0F041F5D
:10059000151F261F60F4279517950795E79508F412
:1005A0006894339560CFEF0B040B150B260B5BCFD4
:1005B000302D307822271127002708953FE7302972
:1005C00020E8F9CF3FEF2FEFF6CF94DFD8F3D1F348
:1005D0007078372708958EDFA8F3A3F3F9CF30782A
:1005E00037279BCF71DF70F383F3A9F383DF50F3D9
:1005F000B3F3A9F327DF0124E8943F57E040370F16
:10060000EF1F12F021F0DACF3A3E90F26894302CCE
:10061000049FF001059F7727F00D711D149F222480
:10062000F00D711D221C069F0027700D211C001F5C
:10063000249F4427700D211C041F159F700D211C41
:10064000041F169F1127200C011D111F259F200C30
:10065000011D141F269F000D111D5EF43395169584
:10066000079527947795F795E79533953130BCF347
:1006700014C0112322F0332349F433950EC033956F
:1006800061F4032C9BCF3A95313038F0EE0FFF1F09
:10069000771F221C001F111FB2F7E894FE2B09F0F0
:1006A0006894212F102F022DE72F032CE6CE22DF96
:1006B00020F01BF070783727089584CF1BDFE9F313
:1006C000E0F3032E072674CF032E072677CFFCDE38
:1006D000A0F36BF399F30EDF80F39BF3A9F3B2DE83
:1006E000012427FD06C03150E040000F111F221FDA
:1006F000D2F767FD06C07150F040440F551F661FCA
:10070000D2F7E894371BEF0B3158EF4F2AF0EE2366
:10071000E9F63F3FD9F203C0393EA8F26894E0E021
:10072000F0E040175107620738F0315008F4689440
:10073000000F111F221FEE1F71E01124222409C097
:10074000000F111F221FEE1F041715072607EF07C2
:1007500020F0041B150B260BEF0B771F111C221C1E
:1007600078F7000F111F221FEE1F04171507260729
:10077000EF073E2EF0F9E894E0E839F008F4E0E005
:10078000322A312A302A09F0689470951094209406
:10079000332311F0F0FF09C0269417947795E7955D
:1007A00008F4689433953130BCF3072F112D222DB6
:1007B00064CE50DE3F5748F03F3168F007FCF8CE7A
:1007C0003FE72FEF1FEF0FEF089530E020E08901A2
:1007D00010E000E00895432F322F212F102F0E2F0D
:1007E0004F5141950E94DE0107FE08950C941202BC
:1007F000BA92AA929A928A927A926A925A924A9259
:10080000BA93AA939A938A930895BB84AA849984ED
:1008100088847F806E805D804C80BB81AA819981B5
:100820008881F0E0EC0FFD1FEF01089501E00895CD
:1008300020E02D9301501040E1F7089525912D936C
:1008400001501040D9F708958CE798E0FC0105911C
:100850001491FC013296A591B491FC013496259136
:100860003491422F432B19F0F901E8DF01C0E0DF9A
:10087000069618E08238910748F308951500A00005
:02088000000076
:0002EA0113
:00000001FF
